{
  "_format": "hh-sol-artifact-1",
  "contractName": "DiveToken",
  "sourceName": "contracts/DiveToken.sol",
  "abi": [
    {
      "inputs": [
        {
          "internalType": "address",
          "name": "_minter",
          "type": "address"
        },
        {
          "internalType": "uint256",
          "name": "supply",
          "type": "uint256"
        }
      ],
      "stateMutability": "nonpayable",
      "type": "constructor"
    },
    {
      "anonymous": false,
      "inputs": [
        {
          "indexed": true,
          "internalType": "address",
          "name": "owner",
          "type": "address"
        },
        {
          "indexed": true,
          "internalType": "address",
          "name": "spender",
          "type": "address"
        },
        {
          "indexed": false,
          "internalType": "uint256",
          "name": "value",
          "type": "uint256"
        }
      ],
      "name": "Approval",
      "type": "event"
    },
    {
      "anonymous": false,
      "inputs": [
        {
          "indexed": true,
          "internalType": "address",
          "name": "from",
          "type": "address"
        },
        {
          "indexed": true,
          "internalType": "address",
          "name": "to",
          "type": "address"
        },
        {
          "indexed": false,
          "internalType": "uint256",
          "name": "value",
          "type": "uint256"
        }
      ],
      "name": "Transfer",
      "type": "event"
    },
    {
      "inputs": [],
      "name": "_decimal",
      "outputs": [
        {
          "internalType": "uint256",
          "name": "",
          "type": "uint256"
        }
      ],
      "stateMutability": "view",
      "type": "function"
    },
    {
      "inputs": [
        {
          "internalType": "address",
          "name": "owner",
          "type": "address"
        },
        {
          "internalType": "address",
          "name": "spender",
          "type": "address"
        }
      ],
      "name": "allowance",
      "outputs": [
        {
          "internalType": "uint256",
          "name": "",
          "type": "uint256"
        }
      ],
      "stateMutability": "view",
      "type": "function"
    },
    {
      "inputs": [
        {
          "internalType": "address",
          "name": "spender",
          "type": "address"
        },
        {
          "internalType": "uint256",
          "name": "amount",
          "type": "uint256"
        }
      ],
      "name": "approve",
      "outputs": [
        {
          "internalType": "bool",
          "name": "",
          "type": "bool"
        }
      ],
      "stateMutability": "nonpayable",
      "type": "function"
    },
    {
      "inputs": [
        {
          "internalType": "address",
          "name": "account",
          "type": "address"
        }
      ],
      "name": "balanceOf",
      "outputs": [
        {
          "internalType": "uint256",
          "name": "",
          "type": "uint256"
        }
      ],
      "stateMutability": "view",
      "type": "function"
    },
    {
      "inputs": [],
      "name": "decimals",
      "outputs": [
        {
          "internalType": "uint8",
          "name": "",
          "type": "uint8"
        }
      ],
      "stateMutability": "view",
      "type": "function"
    },
    {
      "inputs": [
        {
          "internalType": "address",
          "name": "spender",
          "type": "address"
        },
        {
          "internalType": "uint256",
          "name": "subtractedValue",
          "type": "uint256"
        }
      ],
      "name": "decreaseAllowance",
      "outputs": [
        {
          "internalType": "bool",
          "name": "",
          "type": "bool"
        }
      ],
      "stateMutability": "nonpayable",
      "type": "function"
    },
    {
      "inputs": [
        {
          "internalType": "address",
          "name": "user",
          "type": "address"
        }
      ],
      "name": "getBalance",
      "outputs": [
        {
          "internalType": "uint256",
          "name": "balance",
          "type": "uint256"
        }
      ],
      "stateMutability": "view",
      "type": "function"
    },
    {
      "inputs": [],
      "name": "getTotalSupply",
      "outputs": [
        {
          "internalType": "uint256",
          "name": "",
          "type": "uint256"
        }
      ],
      "stateMutability": "view",
      "type": "function"
    },
    {
      "inputs": [
        {
          "internalType": "address",
          "name": "spender",
          "type": "address"
        },
        {
          "internalType": "uint256",
          "name": "addedValue",
          "type": "uint256"
        }
      ],
      "name": "increaseAllowance",
      "outputs": [
        {
          "internalType": "bool",
          "name": "",
          "type": "bool"
        }
      ],
      "stateMutability": "nonpayable",
      "type": "function"
    },
    {
      "inputs": [
        {
          "internalType": "address",
          "name": "to",
          "type": "address"
        },
        {
          "internalType": "uint256",
          "name": "amount",
          "type": "uint256"
        }
      ],
      "name": "mint",
      "outputs": [],
      "stateMutability": "nonpayable",
      "type": "function"
    },
    {
      "inputs": [],
      "name": "name",
      "outputs": [
        {
          "internalType": "string",
          "name": "",
          "type": "string"
        }
      ],
      "stateMutability": "view",
      "type": "function"
    },
    {
      "inputs": [],
      "name": "symbol",
      "outputs": [
        {
          "internalType": "string",
          "name": "",
          "type": "string"
        }
      ],
      "stateMutability": "view",
      "type": "function"
    },
    {
      "inputs": [],
      "name": "totalSupply",
      "outputs": [
        {
          "internalType": "uint256",
          "name": "",
          "type": "uint256"
        }
      ],
      "stateMutability": "view",
      "type": "function"
    },
    {
      "inputs": [
        {
          "internalType": "address",
          "name": "_to",
          "type": "address"
        },
        {
          "internalType": "uint256",
          "name": "_value",
          "type": "uint256"
        }
      ],
      "name": "transfer",
      "outputs": [
        {
          "internalType": "bool",
          "name": "success",
          "type": "bool"
        }
      ],
      "stateMutability": "nonpayable",
      "type": "function"
    },
    {
      "inputs": [
        {
          "internalType": "address",
          "name": "from",
          "type": "address"
        },
        {
          "internalType": "address",
          "name": "to",
          "type": "address"
        },
        {
          "internalType": "uint256",
          "name": "amount",
          "type": "uint256"
        }
      ],
      "name": "transferFrom",
      "outputs": [
        {
          "internalType": "bool",
          "name": "",
          "type": "bool"
        }
      ],
      "stateMutability": "nonpayable",
      "type": "function"
    }
  ],
  "bytecode": "0x608060405260126006553480156200001657600080fd5b50604051620021873803806200218783398181016040528101906200003c9190620004de565b6040518060400160405280600981526020017f44697665727365687100000000000000000000000000000000000000000000008152506040518060400160405280600481526020017f44495645000000000000000000000000000000000000000000000000000000008152508160039080519060200190620000c092919062000389565b508060049080519060200190620000d992919062000389565b505050600654600a620000ed9190620006a8565b81620000fa9190620006f9565b60058190555081600760006101000a81548173ffffffffffffffffffffffffffffffffffffffff021916908373ffffffffffffffffffffffffffffffffffffffff1602179055506200015382826200015b60201b60201c565b5050620008cd565b600073ffffffffffffffffffffffffffffffffffffffff168273ffffffffffffffffffffffffffffffffffffffff161415620001ce576040517f08c379a0000000000000000000000000000000000000000000000000000000008152600401620001c590620007bb565b60405180910390fd5b6200020282600654600a620001e49190620006a8565b83620001f19190620006f9565b6200020660201b620007231760201c565b5050565b600073ffffffffffffffffffffffffffffffffffffffff168273ffffffffffffffffffffffffffffffffffffffff16141562000279576040517f08c379a00000000000000000000000000000000000000000000000000000000081526004016200027090620007bb565b60405180910390fd5b6200028d600083836200037f60201b60201c565b8060026000828254620002a19190620007dd565b92505081905550806000808473ffffffffffffffffffffffffffffffffffffffff1673ffffffffffffffffffffffffffffffffffffffff1681526020019081526020016000206000828254620002f89190620007dd565b925050819055508173ffffffffffffffffffffffffffffffffffffffff16600073ffffffffffffffffffffffffffffffffffffffff167fddf252ad1be2c89b69c2b068fc378daa952ba7f163c4a11628f55a4df523b3ef836040516200035f91906200084b565b60405180910390a36200037b600083836200038460201b60201c565b5050565b505050565b505050565b828054620003979062000897565b90600052602060002090601f016020900481019282620003bb576000855562000407565b82601f10620003d657805160ff191683800117855562000407565b8280016001018555821562000407579182015b8281111562000406578251825591602001919060010190620003e9565b5b5090506200041691906200041a565b5090565b5b80821115620004355760008160009055506001016200041b565b5090565b600080fd5b600073ffffffffffffffffffffffffffffffffffffffff82169050919050565b60006200046b826200043e565b9050919050565b6200047d816200045e565b81146200048957600080fd5b50565b6000815190506200049d8162000472565b92915050565b6000819050919050565b620004b881620004a3565b8114620004c457600080fd5b50565b600081519050620004d881620004ad565b92915050565b60008060408385031215620004f857620004f762000439565b5b600062000508858286016200048c565b92505060206200051b85828601620004c7565b9150509250929050565b7f4e487b7100000000000000000000000000000000000000000000000000000000600052601160045260246000fd5b60008160011c9050919050565b6000808291508390505b6001851115620005b3578086048111156200058b576200058a62000525565b5b60018516156200059b5780820291505b8081029050620005ab8562000554565b94506200056b565b94509492505050565b600082620005ce5760019050620006a1565b81620005de5760009050620006a1565b8160018114620005f75760028114620006025762000638565b6001915050620006a1565b60ff84111562000617576200061662000525565b5b8360020a91508482111562000631576200063062000525565b5b50620006a1565b5060208310610133831016604e8410600b8410161715620006725782820a9050838111156200066c576200066b62000525565b5b620006a1565b62000681848484600162000561565b925090508184048111156200069b576200069a62000525565b5b81810290505b9392505050565b6000620006b582620004a3565b9150620006c283620004a3565b9250620006f17fffffffffffffffffffffffffffffffffffffffffffffffffffffffffffffffff8484620005bc565b905092915050565b60006200070682620004a3565b91506200071383620004a3565b9250817fffffffffffffffffffffffffffffffffffffffffffffffffffffffffffffffff04831182151516156200074f576200074e62000525565b5b828202905092915050565b600082825260208201905092915050565b7f45524332303a206d696e7420746f20746865207a65726f206164647265737300600082015250565b6000620007a3601f836200075a565b9150620007b0826200076b565b602082019050919050565b60006020820190508181036000830152620007d68162000794565b9050919050565b6000620007ea82620004a3565b9150620007f783620004a3565b9250827fffffffffffffffffffffffffffffffffffffffffffffffffffffffffffffffff038211156200082f576200082e62000525565b5b828201905092915050565b6200084581620004a3565b82525050565b60006020820190506200086260008301846200083a565b92915050565b7f4e487b7100000000000000000000000000000000000000000000000000000000600052602260045260246000fd5b60006002820490506001821680620008b057607f821691505b60208210811415620008c757620008c662000868565b5b50919050565b6118aa80620008dd6000396000f3fe608060405234801561001057600080fd5b50600436106100f55760003560e01c806340c10f1911610097578063a9059cbb11610066578063a9059cbb1461029c578063c4e41b22146102cc578063dd62ed3e146102ea578063f8b2cb4f1461031a576100f5565b806340c10f191461020257806370a082311461021e57806395d89b411461024e578063a457c2d71461026c576100f5565b806323b872dd116100d357806323b872dd146101665780632f0e312014610196578063313ce567146101b457806339509351146101d2576100f5565b806306fdde03146100fa578063095ea7b31461011857806318160ddd14610148575b600080fd5b61010261034a565b60405161010f9190610ec0565b60405180910390f35b610132600480360381019061012d9190610f7b565b6103dc565b60405161013f9190610fd6565b60405180910390f35b6101506103ff565b60405161015d9190611000565b60405180910390f35b610180600480360381019061017b919061101b565b610409565b60405161018d9190610fd6565b60405180910390f35b61019e610438565b6040516101ab9190611000565b60405180910390f35b6101bc61043e565b6040516101c9919061108a565b60405180910390f35b6101ec60048036038101906101e79190610f7b565b610447565b6040516101f99190610fd6565b60405180910390f35b61021c60048036038101906102179190610f7b565b61047e565b005b610238600480360381019061023391906110a5565b6104e6565b6040516102459190611000565b60405180910390f35b61025661052e565b6040516102639190610ec0565b60405180910390f35b61028660048036038101906102819190610f7b565b6105c0565b6040516102939190610fd6565b60405180910390f35b6102b660048036038101906102b19190610f7b565b610637565b6040516102c39190610fd6565b60405180910390f35b6102d461064e565b6040516102e19190611000565b60405180910390f35b61030460048036038101906102ff91906110d2565b610671565b6040516103119190611000565b60405180910390f35b610334600480360381019061032f91906110a5565b6106f8565b6040516103419190611000565b60405180910390f35b60606003805461035990611141565b80601f016020809104026020016040519081016040528092919081815260200182805461038590611141565b80156103d25780601f106103a7576101008083540402835291602001916103d2565b820191906000526020600020905b8154815290600101906020018083116103b557829003601f168201915b5050505050905090565b6000806103e7610883565b90506103f481858561088b565b600191505092915050565b6000600254905090565b600080610414610883565b9050610421858285610a56565b61042c858585610ae2565b60019150509392505050565b60065481565b60006012905090565b600080610452610883565b90506104738185856104648589610671565b61046e91906111a2565b61088b565b600191505092915050565b600760009054906101000a900473ffffffffffffffffffffffffffffffffffffffff1673ffffffffffffffffffffffffffffffffffffffff163373ffffffffffffffffffffffffffffffffffffffff16146104d857600080fd5b6104e28282610d63565b5050565b60008060008373ffffffffffffffffffffffffffffffffffffffff1673ffffffffffffffffffffffffffffffffffffffff168152602001908152602001600020549050919050565b60606004805461053d90611141565b80601f016020809104026020016040519081016040528092919081815260200182805461056990611141565b80156105b65780601f1061058b576101008083540402835291602001916105b6565b820191906000526020600020905b81548152906001019060200180831161059957829003601f168201915b5050505050905090565b6000806105cb610883565b905060006105d98286610671565b90508381101561061e576040517f08c379a00000000000000000000000000000000000000000000000000000000081526004016106159061126a565b60405180910390fd5b61062b828686840361088b565b60019250505092915050565b60006106438383610dfa565b506001905092915050565b6000600654600a61065f91906113bd565b60055461066c9190611437565b905090565b6000600160008473ffffffffffffffffffffffffffffffffffffffff1673ffffffffffffffffffffffffffffffffffffffff16815260200190815260200160002060008373ffffffffffffffffffffffffffffffffffffffff1673ffffffffffffffffffffffffffffffffffffffff16815260200190815260200160002054905092915050565b6000600654600a61070991906113bd565b610712836104e6565b61071c9190611437565b9050919050565b600073ffffffffffffffffffffffffffffffffffffffff168273ffffffffffffffffffffffffffffffffffffffff161415610793576040517f08c379a000000000000000000000000000000000000000000000000000000000815260040161078a906114b4565b60405180910390fd5b61079f60008383610e1d565b80600260008282546107b191906111a2565b92505081905550806000808473ffffffffffffffffffffffffffffffffffffffff1673ffffffffffffffffffffffffffffffffffffffff168152602001908152602001600020600082825461080691906111a2565b925050819055508173ffffffffffffffffffffffffffffffffffffffff16600073ffffffffffffffffffffffffffffffffffffffff167fddf252ad1be2c89b69c2b068fc378daa952ba7f163c4a11628f55a4df523b3ef8360405161086b9190611000565b60405180910390a361087f60008383610e22565b5050565b600033905090565b600073ffffffffffffffffffffffffffffffffffffffff168373ffffffffffffffffffffffffffffffffffffffff1614156108fb576040517f08c379a00000000000000000000000000000000000000000000000000000000081526004016108f290611546565b60405180910390fd5b600073ffffffffffffffffffffffffffffffffffffffff168273ffffffffffffffffffffffffffffffffffffffff16141561096b576040517f08c379a0000000000000000000000000000000000000000000000000000000008152600401610962906115d8565b60405180910390fd5b80600160008573ffffffffffffffffffffffffffffffffffffffff1673ffffffffffffffffffffffffffffffffffffffff16815260200190815260200160002060008473ffffffffffffffffffffffffffffffffffffffff1673ffffffffffffffffffffffffffffffffffffffff168152602001908152602001600020819055508173ffffffffffffffffffffffffffffffffffffffff168373ffffffffffffffffffffffffffffffffffffffff167f8c5be1e5ebec7d5bd14f71427d1e84f3dd0314c0f7b2291e5b200ac8c7c3b92583604051610a499190611000565b60405180910390a3505050565b6000610a628484610671565b90507fffffffffffffffffffffffffffffffffffffffffffffffffffffffffffffffff8114610adc5781811015610ace576040517f08c379a0000000000000000000000000000000000000000000000000000000008152600401610ac590611644565b60405180910390fd5b610adb848484840361088b565b5b50505050565b600073ffffffffffffffffffffffffffffffffffffffff168373ffffffffffffffffffffffffffffffffffffffff161415610b52576040517f08c379a0000000000000000000000000000000000000000000000000000000008152600401610b49906116d6565b60405180910390fd5b600073ffffffffffffffffffffffffffffffffffffffff168273ffffffffffffffffffffffffffffffffffffffff161415610bc2576040517f08c379a0000000000000000000000000000000000000000000000000000000008152600401610bb990611768565b60405180910390fd5b610bcd838383610e1d565b60008060008573ffffffffffffffffffffffffffffffffffffffff1673ffffffffffffffffffffffffffffffffffffffff16815260200190815260200160002054905081811015610c53576040517f08c379a0000000000000000000000000000000000000000000000000000000008152600401610c4a906117fa565b60405180910390fd5b8181036000808673ffffffffffffffffffffffffffffffffffffffff1673ffffffffffffffffffffffffffffffffffffffff16815260200190815260200160002081905550816000808573ffffffffffffffffffffffffffffffffffffffff1673ffffffffffffffffffffffffffffffffffffffff1681526020019081526020016000206000828254610ce691906111a2565b925050819055508273ffffffffffffffffffffffffffffffffffffffff168473ffffffffffffffffffffffffffffffffffffffff167fddf252ad1be2c89b69c2b068fc378daa952ba7f163c4a11628f55a4df523b3ef84604051610d4a9190611000565b60405180910390a3610d5d848484610e22565b50505050565b600073ffffffffffffffffffffffffffffffffffffffff168273ffffffffffffffffffffffffffffffffffffffff161415610dd3576040517f08c379a0000000000000000000000000000000000000000000000000000000008152600401610dca906114b4565b60405180910390fd5b610df682600654600a610de691906113bd565b83610df1919061181a565b610723565b5050565b600080610e05610883565b9050610e12818585610ae2565b600191505092915050565b505050565b505050565b600081519050919050565b600082825260208201905092915050565b60005b83811015610e61578082015181840152602081019050610e46565b83811115610e70576000848401525b50505050565b6000601f19601f8301169050919050565b6000610e9282610e27565b610e9c8185610e32565b9350610eac818560208601610e43565b610eb581610e76565b840191505092915050565b60006020820190508181036000830152610eda8184610e87565b905092915050565b600080fd5b600073ffffffffffffffffffffffffffffffffffffffff82169050919050565b6000610f1282610ee7565b9050919050565b610f2281610f07565b8114610f2d57600080fd5b50565b600081359050610f3f81610f19565b92915050565b6000819050919050565b610f5881610f45565b8114610f6357600080fd5b50565b600081359050610f7581610f4f565b92915050565b60008060408385031215610f9257610f91610ee2565b5b6000610fa085828601610f30565b9250506020610fb185828601610f66565b9150509250929050565b60008115159050919050565b610fd081610fbb565b82525050565b6000602082019050610feb6000830184610fc7565b92915050565b610ffa81610f45565b82525050565b60006020820190506110156000830184610ff1565b92915050565b60008060006060848603121561103457611033610ee2565b5b600061104286828701610f30565b935050602061105386828701610f30565b925050604061106486828701610f66565b9150509250925092565b600060ff82169050919050565b6110848161106e565b82525050565b600060208201905061109f600083018461107b565b92915050565b6000602082840312156110bb576110ba610ee2565b5b60006110c984828501610f30565b91505092915050565b600080604083850312156110e9576110e8610ee2565b5b60006110f785828601610f30565b925050602061110885828601610f30565b9150509250929050565b7f4e487b7100000000000000000000000000000000000000000000000000000000600052602260045260246000fd5b6000600282049050600182168061115957607f821691505b6020821081141561116d5761116c611112565b5b50919050565b7f4e487b7100000000000000000000000000000000000000000000000000000000600052601160045260246000fd5b60006111ad82610f45565b91506111b883610f45565b9250827fffffffffffffffffffffffffffffffffffffffffffffffffffffffffffffffff038211156111ed576111ec611173565b5b828201905092915050565b7f45524332303a2064656372656173656420616c6c6f77616e63652062656c6f7760008201527f207a65726f000000000000000000000000000000000000000000000000000000602082015250565b6000611254602583610e32565b915061125f826111f8565b604082019050919050565b6000602082019050818103600083015261128381611247565b9050919050565b60008160011c9050919050565b6000808291508390505b60018511156112e1578086048111156112bd576112bc611173565b5b60018516156112cc5780820291505b80810290506112da8561128a565b94506112a1565b94509492505050565b6000826112fa57600190506113b6565b8161130857600090506113b6565b816001811461131e576002811461132857611357565b60019150506113b6565b60ff84111561133a57611339611173565b5b8360020a91508482111561135157611350611173565b5b506113b6565b5060208310610133831016604e8410600b841016171561138c5782820a90508381111561138757611386611173565b5b6113b6565b6113998484846001611297565b925090508184048111156113b0576113af611173565b5b81810290505b9392505050565b60006113c882610f45565b91506113d383610f45565b92506114007fffffffffffffffffffffffffffffffffffffffffffffffffffffffffffffffff84846112ea565b905092915050565b7f4e487b7100000000000000000000000000000000000000000000000000000000600052601260045260246000fd5b600061144282610f45565b915061144d83610f45565b92508261145d5761145c611408565b5b828204905092915050565b7f45524332303a206d696e7420746f20746865207a65726f206164647265737300600082015250565b600061149e601f83610e32565b91506114a982611468565b602082019050919050565b600060208201905081810360008301526114cd81611491565b9050919050565b7f45524332303a20617070726f76652066726f6d20746865207a65726f2061646460008201527f7265737300000000000000000000000000000000000000000000000000000000602082015250565b6000611530602483610e32565b915061153b826114d4565b604082019050919050565b6000602082019050818103600083015261155f81611523565b9050919050565b7f45524332303a20617070726f766520746f20746865207a65726f20616464726560008201527f7373000000000000000000000000000000000000000000000000000000000000602082015250565b60006115c2602283610e32565b91506115cd82611566565b604082019050919050565b600060208201905081810360008301526115f1816115b5565b9050919050565b7f45524332303a20696e73756666696369656e7420616c6c6f77616e6365000000600082015250565b600061162e601d83610e32565b9150611639826115f8565b602082019050919050565b6000602082019050818103600083015261165d81611621565b9050919050565b7f45524332303a207472616e736665722066726f6d20746865207a65726f20616460008201527f6472657373000000000000000000000000000000000000000000000000000000602082015250565b60006116c0602583610e32565b91506116cb82611664565b604082019050919050565b600060208201905081810360008301526116ef816116b3565b9050919050565b7f45524332303a207472616e7366657220746f20746865207a65726f206164647260008201527f6573730000000000000000000000000000000000000000000000000000000000602082015250565b6000611752602383610e32565b915061175d826116f6565b604082019050919050565b6000602082019050818103600083015261178181611745565b9050919050565b7f45524332303a207472616e7366657220616d6f756e742065786365656473206260008201527f616c616e63650000000000000000000000000000000000000000000000000000602082015250565b60006117e4602683610e32565b91506117ef82611788565b604082019050919050565b60006020820190508181036000830152611813816117d7565b9050919050565b600061182582610f45565b915061183083610f45565b9250817fffffffffffffffffffffffffffffffffffffffffffffffffffffffffffffffff048311821515161561186957611868611173565b5b82820290509291505056fea264697066735822122069f3bf3f1cf9d6d94b5ccba6188f4e4bac65116e866d8570e892cb930738d5a164736f6c634300080a0033",
  "linkReferences": {},
  "deployedLinkReferences": {}
}